:100000000C9462000C948A000C948A000C948A0070
:100010000C948A000C948A000C948A000C9454036B
:100020000C948A000C948A000C948A000C948A0028
:100030000C948A000C948A000C948A000C948A0018
:100040000C940A030C948A000C94D8020C94B2020B
:100050000C948A000C948A000C948A000C948A00F8
:100060000C948A000C948A000000000024002700F1
:100070002A0000000000250028002B0000000000DE
:1000800023002600290004040404040404040202DA
:100090000202020203030303030301020408102007
:1000A0004080010204081020010204081020000012
:1000B0000008000201000003040700000000000027
:1000C00000000E0411241FBECFEFD8E0DEBFCDBF6D
:1000D00011E0A0E0B1E0E0E9FCE002C005900D9283
:1000E000A631B107D9F722E0A6E1B1E001C01D9227
:1000F000AB3BB207E1F710E0C2E6D0E004C02197C5
:10010000FE010E943B06C136D107C9F70E94760462
:100110000C9446060C940000CF92DF92EF92FF926F
:100120000F931F93CF93DF936C017A018B01C0E093
:10013000D0E0CE15DF0589F0D8016D918D01D60193
:10014000ED91FC910190F081E02DC6010995892B7C
:1001500011F47E0102C02196ECCFC701DF91CF914F
:100160001F910F91FF90EF90DF90CF900895FC01C9
:10017000918D828D981761F0828DDF01A80FB11DDE
:100180005D968C91928D9F5F9F73928F90E0089502
:100190008FEF9FEF0895FC01918D828D981731F0BC
:1001A000828DE80FF11D858D90E008958FEF9FEF10
:1001B0000895FC01918D228D892F90E0805C9F4FE6
:1001C000821B91098F739927089580E291E00E9424
:1001D000D90021E0892B09F420E0822F0895FC0149
:1001E000848DDF01A80FB11DA35ABF4F2C91848DC0
:1001F00090E001968F739927848FA689B7892C93F5
:10020000A089B1898C9180648C93938D848D98138F
:1002100006C00288F389E02D80818F7D8083089558
:10022000EF92FF920F931F93CF93DF93EC0181E046
:10023000888F9B8D8C8D981305C0E889F989808102
:1002400085FD24C0F62E0B8D10E00F5F1F4F0F733E
:100250001127E02E8C8DE8120CC00FB607FCFACFE8
:10026000E889F989808185FFF5CFCE010E94EF00F2
:10027000F1CF8B8DFE01E80FF11DE35AFF4FF082A5
:100280000B8FEA89FB898081806207C0EE89FF8934
:100290006083E889F98980818064808381E090E0CF
:1002A000DF91CF911F910F91FF90EF900895CF9321
:1002B000DF93EC01888D8823C9F0EA89FB8980816E
:1002C00085FD05C0A889B9898C9186FD0FC00FB640
:1002D00007FCF5CF808185FFF2CFA889B9898C9181
:1002E00085FFEDCFCE010E94EF00E7CFDF91CF91E8
:1002F000089580E090E0892B29F00E94E5008111AB
:100300000C9400000895833081F028F4813099F036
:100310008230A1F008958730A9F08830B9F0843098
:10032000D1F4809180008F7D03C0809180008F7711
:1003300080938000089584B58F7702C084B58F7D47
:1003400084BD08958091B0008F7703C08091B00084
:100350008F7D8093B0000895CF93DF93282F30E0F6
:10036000F901E255FF4F8491F901E656FF4FD49110
:10037000F901EA57FF4FC491CC2391F081110E94FB
:100380008301EC2FF0E0EE0FFF1FE458FF4FA59123
:10039000B491EC91ED2381E090E021F480E002C083
:1003A00080E090E0DF91CF9108951F93CF93DF938A
:1003B000282F30E0F901E255FF4F8491F901E6560C
:1003C000FF4FD491F901EA57FF4FC491CC23C9F0F4
:1003D000162F81110E948301EC2FF0E0EE0FFF1F1A
:1003E000EE58FF4FA591B4918FB7F894111105C045
:1003F0009C91ED2FE095E92302C0EC91ED2BEC935D
:100400008FBFDF91CF911F910895CF93DF9390E03D
:10041000FC01E656FF4F2491FC01EA57FF4F8491FF
:10042000882361F190E0880F991FFC01E859FF4F84
:10043000C591D491FC01EE58FF4FA591B491611183
:1004400009C09FB7F8948881209582238883EC9116
:100450002E230BC0623061F49FB7F8943881822F4D
:10046000809583238883EC912E2B2C939FBF06C00D
:100470008FB7F894E8812E2B28838FBFDF91CF911F
:1004800008953FB7F89480911B0190911C01A091B1
:100490001D01B0911E0126B5A89B05C02F3F19F084
:1004A0000196A11DB11D3FBFBA2FA92F982F8827F4
:1004B000820F911DA11DB11DBC01CD0142E0660F4F
:1004C000771F881F991F4A95D1F708952FB7F89481
:1004D00060911701709118018091190190911A0192
:1004E0002FBF08958F929F92AF92BF92CF92DF92CB
:1004F000EF92FF926B017C010E9441024B015C0173
:1005000084E0C81AD108E108F108C80CD91CEA1C1B
:10051000FB1CC814D904EA04FB0438F40E9441020D
:1005200086169706A806B906C8F30E9441026C1504
:100530007D058E059F05C8F3FF90EF90DF90CF906B
:10054000BF90AF909F908F900895E0EBF0E0808196
:100550008F7D808368E572E080E090E00C94720209
:100560000E9441061F920F920FB60F9211242F93F3
:100570003F934F935F936F937F938F939F93AF932B
:10058000BF93EF93FF9380E291E00E94EF00FF9111
:10059000EF91BF91AF919F918F917F916F915F91FB
:1005A0004F913F912F910F900FBE0F901F90189574
:1005B0001F920F920FB60F9211242F938F939F9338
:1005C000EF93FF93E0913001F09131018081E09150
:1005D0003601F091370182FD12C09081809139017E
:1005E0008F5F8F7320913A01821751F0E0913901AA
:1005F000F0E0E05EFE4F958F8093390101C080816D
:10060000FF91EF919F918F912F910F900FBE0F90BF
:100610001F9018951F920F920FB60F9211242F93CF
:100620003F938F939F93AF93BF93809117019091C6
:100630001801A0911901B0911A013091160123E01F
:10064000230F2D3720F40196A11DB11D05C026E80A
:10065000230F0296A11DB11D20931601809317014F
:1006600090931801A0931901B0931A0180911B0176
:1006700090911C01A0911D01B0911E010196A11D38
:10068000B11D80931B0190931C01A0931D01B09399
:100690001E01BF91AF919F918F913F912F910F902C
:1006A0000FBE0F901F9018951F920F920FB60F92CA
:1006B00011242F933F934F935F936F937F938F9367
:1006C0009F93AF93BF93EF93FF938091BE010E94DE
:1006D000AC012091C2013091C3012F5F3F4F309395
:1006E000C3012093C2019091C101953618F096E0A4
:1006F0009093BD019091BD019430C9F128F49230DE
:1007000069F09330D1F05EC0953009F451C0963055
:1007100009F058C091E090938E0251C0811152C0EF
:100720002091C2013091C3012436310508F442C042
:1007300010928E021092C1011CC0813009F042C09B
:10074000E091C10191E09E0F9093C101F0E02091F2
:10075000C2013091C301EE0FFF1FE354FE4F3087FB
:1007600027831092C3011092C20194E029C0811125
:1007700017C0E091C10191E09E0F9093C101F0E09C
:100780002091C2013091C301EE0FFF1FE354FE4FD1
:10079000308727831092C3011092C20193E010C0EA
:1007A0002091C2013091C3012536310558F007C0B0
:1007B000811108C01092C3011092C20103C095E0DC
:1007C0009093BD019091C0019923B9F081110AC0A5
:1007D0008091BF01882321F08091BF0161E009C0B1
:1007E0002D9A0BC08091BF01882331F08091BF0109
:1007F00060E00E94D50101C02D98FF91EF91BF915B
:10080000AF919F918F917F916F915F914F913F91A8
:100810002F910F900FBE0F901F901895CF93DF93DD
:10082000E0E2F1E01382128288EE93E0A0E0B0E013
:1008300084839583A683B7838AE091E09183808344
:1008400085EC90E09587848784EC90E09787868795
:1008500080EC90E0918B808B81EC90E0938B828B8D
:1008600082EC90E0958B848B86EC90E0978B868B66
:10087000118E128E138E148EEDEBF1E082E08183E7
:100880001382CFE8D2E025E030E03C8B2B8B23E0D5
:1008900030E03E8B2D8B29E030E0388F2F8B24E029
:1008A00030E03A8F298F26E030E03C8F2B8F97E1A4
:1008B0009FA388A78AE0ECEAF2E0DF011D928A9507
:1008C000E9F780E1E1E9F2E0DF011D928A95E9F7BD
:1008D00060E085E00E94050260E08F890E940502C9
:1008E00061E0898DDF91CF910C940502789484B5F5
:1008F000826084BD84B5816084BD85B5826085BD1C
:1009000085B5816085BD80916E00816080936E00A9
:10091000109281008091810082608093810080919B
:10092000810081608093810080918000816080934C
:1009300080008091B10084608093B1008091B0000C
:1009400081608093B00080917A00846080937A0007
:1009500080917A00826080937A0080917A00816031
:1009600080937A0080917A00806880937A00109258
:10097000C100E0913001F091310182E08083E0918B
:100980002C01F0912D011082E0912E01F0912F01A8
:100990008FEC808310923801E0913401F0913501A1
:1009A00086E08083E0913201F091330180818061A3
:1009B0008083E0913201F0913301808188608083EF
:1009C000E0913201F0913301808180688083E09171
:1009D0003201F091330180818F7D808361E08DE071
:1009E0000E94050262E082E00E94050261E08DE063
:1009F0000E94D50108EC12E444244A94542C32019C
:100A000022242A94322C8090AE029090AF02A090C3
:100A1000B002B090B1022AE0820E911CA11CB11C60
:100A20000E946602681579058A059B0508F4BBC01B
:100A30000E9466026093AE027093AF028093B00290
:100A40009093B1028091A2020E94AC01C82F8093C2
:100A5000AD028091AC02C813A1C08091B202813076
:100A600009F093C0C13009F090C08091B4028111A7
:100A70008CC0C093B4028091A6020E94AC01019781
:100A800009F076C08091B602C090B702D12CE12C5B
:100A9000F12CFC2CEE24DD24CC24E82A8F2D992780
:100AA000AA27BB27BC01CD016E0D711D811D911DB3
:100AB0002FEF30E040E050E00E941906C62AD72A06
:100AC000E82AF92A61E08091A8020E94D5011092DB
:100AD000700061E083E00E94050260E083E00E9414
:100AE000D501C093B00089E08093B1000093B300BA
:100AF0001093B4008091B00080628093B00060E6F3
:100B000079E080E090E00E9472020E94A502C0E2BB
:100B1000D0E0812C912CA12C30E8B32ED501C4015A
:100B20008C219D21AE21BF21892B8A2B8B2B51F04B
:100B30008091B00080628093B00060EB74E080E050
:100B400090E009C08091B00080628093B00068E5B9
:100B500072E080E090E00E9472020E94A502B694CA
:100B6000A794979487942197C9F6FF24F39401C022
:100B7000F12C8091B402813049F41092B40260E00B
:100B80008091A8020E94D50101C0F12C81E09091D2
:100B9000AD02911180E08093B20201C0F12C8091EE
:100BA000AD028093AC02FF20A9F160911F0121E00A
:100BB000622760931F0186E00E94D5010E946602B1
:100BC000709305016093040125C00E9466024E01E6
:100BD000DD0FAA08BB08DC01CB0188199909AA0915
:100BE000BB09C297A105B105E8F48091000190917D
:100BF0000101A0910201B09103018F3F9F4FAF4FC0
:100C0000BF4F41F0409200015092010160920201F9
:100C100070920301C0910401D0910501CF3F8FEF85
:100C2000D80799F630920501209204010E947901BB
:100C3000EACEA1E21A2EAA1BBB1BFD010DC0AA1F02
:100C4000BB1FEE1FFF1FA217B307E407F50720F035
:100C5000A21BB30BE40BF50B661F771F881F991FB0
:100C60001A9469F760957095809590959B01AC01F9
:100C7000BD01CF010895EE0FFF1F0590F491E02D07
:100C8000099481E090E0F8940C944606F894FFCF24
:100C9000FFFFFFFFFFFF0000000010018C00D900E4
:060CA000B700CB00570174
:00000001FF
